:020000040800F2
:100000007805002045210008F91F0008FB1F0008A3
:1000100000000000000000000000000000000000E0
:10002000000000000000000000000000FD1F0008AC
:100030000000000000000000FF1F00080120000871
:100040000F1A0008000000009B1F0008F31F0008A3
:10005000F71F0008F3200008FF20000855210008C2
:10006000000000000920000857210008592100085D
:10007000132000085B2100085D210008000000003B
:100080001D20000800000000000000005F210008A3
:1000900000000000612100086321000865210008BC
:1000A000000000006721000800000000692100082E
:1000B00010B5040001D1012010BD3D20205C0028B6
:1000C00004D13C216054200000F0E9FBFFE702204E
:1000D0003D216054211D206800F00EFA01204621C8
:1000E00060543E2160543F216054402160544121BE
:1000F000605442216054432160544421605445219E
:1001000060543D216054002010BD10B5040001D1A1
:10011000012010BD3D20205C002804D13C2160540A
:10012000200000F01BFCD2E710B50400002901D12B
:100130003E2008E0042901D13F2004E0082901D134
:10014000402000E04120205C012801D0012010BDAA
:100150000220002901D13E2208E0042901D13F22DA
:1001600004E0082901D1402200E04122A0542AE005
:100170000220002902D13E23E0541AE0042905D1CF
:100180003F22A0542068C26804231AE0082905D140
:100190004022A0542068C268082312E04123E054A2
:1001A0000A0006D00429EDD00829F3D00C2905D087
:1001B00009E02268D3681843D06004E02068C26870
:1001C00010231343C3600122206800F0DDFA216888
:1001D0000F48814205D00F4A914202D00E4A914207
:1001E00004D14A6C80231B0213434B642268012113
:1001F000824202D00948824204D190684007400FF1
:10020000062802D0106801431160002010BD0000D4
:10021000002C01400044014000480140000400401F
:10022000F8B504002068002502260169314015D088
:10023000C168314012D00221C943016101212177F7
:100240008069800703D0200000F089FB05E02000D2
:1002500000F086FB200000F084FB2577206804274F
:100260000169394016D0C168394013D00421C9430F
:10027000016126778069C0218900014003D02000F8
:1002800000F06DFB05E0200000F06AFB200000F0AC
:1002900068FB2577206808260169314014D0C168C1
:1002A000314011D00821C94301612777C069800717
:1002B00003D0200000F053FB05E0200000F050FBCD
:1002C000200000F04EFB25772068102102690A40CB
:1002D00016D0C268114013D01021C943016126779E
:1002E000C069C0218900014003D0200000F037FB25
:1002F00005E0200000F034FB200000F032FB257701
:100300002068012102690A4008D0C268114005D066
:100310000121C9430161200000F0DAFC206880213E
:1003200002690A4008D0C268114005D08021C94343
:100330000161200000F065FE2068402102690A404A
:1003400008D0C268114005D04021C9430161200096
:1003500000F058FE2068202102690A4008D0C268D7
:10036000114005D02021C9430161200000F04BFE5F
:10037000F1BDF1B53C23C05C012801D10220F2BDE2
:100380000120009B3C24185508272A4EC5020C006A
:10039000002A06D0042A14D0082A24D00C2A32D0ED
:1003A00042E00098006800F0DAF80098006881697F
:1003B0000F438761816904229143816181692269C8
:1003C0000EE00098006800F0FEF80098006881696F
:1003D0000D43856181690E4086618169226912023F
:1003E0000A43826120E00098006800F01DF900983F
:1003F0000068C1690F43C761C16904229143C161AB
:10040000C16922690EE00098006800F03CF900988C
:100410000068C1690D43C561C1690E40C661C1690B
:10042000226912020A43C261002000993C228854CA
:10043000F2BD0000FFFBFFFF70B504003C20205C14
:10044000012801D1022070BD26003C3601253570FF
:1004500002203D22A05420688268264B134083600E
:10046000086802003CD010283AD0202838D0302824
:1004700036D040282DD050281DD0602822D070289A
:1004800003D06B0398420AD02EE0CB684A68896893
:10049000206800F054F920688168772208E0CB6872
:1004A0004A688968206800F04AF920688168AA03D0
:1004B0000A43826018E0CA684968206800F014F9AD
:1004C00050210EE0CA684968206800F01EF96021DA
:1004D00007E0CA684968206800F006F9402100E09A
:1004E0000100206800F023F93D20255400203070E1
:1004F00070BD00008800FFFFF0B50668754A764BB6
:10050000764C774DA84201D0A04206D17027BE4359
:1005100037004E683E43A84208D0A04206D0714C36
:10052000A04203D0984201D0904203D1894C34407C
:10053000CE6826438024A6434C69344304608C680B
:10054000C4620C688462A84203D0984201D09042F1
:1005500001D10969016301214161F0BD0000F8B5D5
:10056000026A01239A430262036A4268846973251E
:10057000AC430D68254300950224A3438C681C43BB
:10058000544B554D564EB04203D0A84201D098422C
:100590000AD10827BC432700CC683C430427BC434E
:1005A000B04203D0A84201D0984205D1694B134014
:1005B0004D691D438A692A434260009A82614968F5
:1005C00041630462F1BD70B5026A10239A4302626E
:1005D000026A43688469604D25400C6824022C43FC
:1005E0002025AA438D682D0115433D4A904208D12C
:1005F000802295432E00CA68150135434022954359
:1006000005E0354A904202D0324A904206D1534A20
:100610001A404B698E691E43B300134343608461E3
:1006200049688163056270BD70B5026A4C4B134026
:100630000362046A4268C56973239D430B682B43B8
:10064000484D25408C6824022C43254DA84207D1F3
:10065000454D2540CC6826022E43444C344005E0ED
:100660001D4DA84202D01B4DA84206D1404D154059
:100670004A698E69164332012A434260C361496860
:10068000C163046270BD30B5026A3A4B1340036225
:10069000036A4268C469304D25400C6824022C432B
:1006A000354D1D408B681B032B430D4DA84205D0D3
:1006B000094DA84202D0074DA84204D12F4D154044
:1006C0004A6992012A434260C46149680164036235
:1006D00030BD0000004801400044014000040040DB
:1006E000002C01400020004030B5036A046A012557
:1006F000AC4304628469F025AC4312012243826159
:100700000A2293431943016230BD30B5036A1024B5
:10071000A34303628469036A194D254012032A43E7
:100720008261A022934309011943016230BD8268AE
:1007300070239A43114307220A438260704730B501
:100740008468104D254029430A43190211438160F2
:1007500030BD0000FFFCFFFFFF8CFFFFFFF3FFFF3A
:10076000FFFEFFFFFFFDFFFFFFF7FFFFFFFBFFFFA8
:10077000FFCFFFFFFFEFFFFFFFDFFFFFFFBFFFFF29
:10078000FF0FFFFFFF00FFFF10B5C906C90E036A88
:1007900001248C40A3430362036A8A401A43026225
:1007A00010BD30B501684118446862088A18836832
:1007B000E40704D54C461B1901E0641C09D19142A1
:1007C00003D00C7864B2491C01E00C3030BD0D78C8
:1007D000491C1D705B1C002CEFD4641EF7D5EEE79E
:1007E00081B0012055490A6802430A600A68104036
:1007F00000900098802040054A6802434A6049689A
:1008000008400090009801B0704770B586B00400B1
:100810001422002101A800F0F7FB20684849884213
:100820003BD14848410D42680A434260426811404A
:10083000009100998021890202680A4302600068E1
:100840000140009100980F200190032002900025A4
:10085000039501A99020C00500F0E0FB3A4E3B480B
:1008600030607560B5608020F0608030306180005D
:1008700070612020B061F561300000F0A3FC002819
:1008800001D000F0B9FB26637462002200210C2025
:1008900000F097FD0C2000F098FD06B070BD0068D8
:1008A0002B49884200D0704780B5022029490A6848
:1008B00002430A6009680840009000980022002165
:1008C000102000F07EFD102000F07FFD01BD70B50E
:1008D00086B0040014220021684600F095FB2068D1
:1008E0001B49884228D1480B16490A6802430A600E
:1008F0000A681040059005988020C0020A680243EB
:100900000A600968084005900598C02000900224FC
:1009100001940025029503950126049669469020CE
:10092000C00500F07BFB00940194029503950496AA
:100930006946094800F072FB06B070BD181002400D
:100940000024014014100240300100200800024041
:10095000000400401C10024000040048704770472B
:1009600070477047F0B58DB000F062FD00F07EF981
:1009700014220021684600F047FB8020C003B44CDD
:100980002168014321602168084005900598802076
:100990008002216801432160216808400590059884
:1009A0008020C00221680143216021680840059031
:1009B000059800220321A74800F0EAFBC425ED00BA
:1009C000002229009020C00500F0E2FB03270097D9
:1009D0000126019600200290039069469D4800F090
:1009E0001DFB10200090002001900290694690208D
:1009F000C00500F013FB00950196002002900390C3
:100A000069469020C00500F009FB20683043206053
:100A1000206830400090009800220021092000F05A
:100A2000D0FC092000F0D1FC0C220021684600F027
:100A3000EBFA894889490860002048608860C860EE
:100A40000E6108204861002008838E76C876FF205A
:100A5000C230C8610020086281490E707F488662FA
:100A600000F0F6FC002801D000F0C6FA002000904B
:100A7000A00C019004200290784C6946200000F000
:100A800055FE002801D000F0B7FA00966946200014
:100A900000F04CFE002801D000F0AEFA02200090D9
:100AA0006946200000F042FE002801D000F0A4FAC0
:100AB00000976946200000F039FE002801D000F0C0
:100AC0009BFA1022002109A800F09EFA08220021BA
:100AD000684600F099FA1C22002102A800F094FA5E
:100AE000604D61482863002068636020A863FA2095
:100AF0004000E86300202864A86428003030FFF735
:100B0000D7FA002801D000F077FA3003099009A93C
:100B100028003030FFF790FC002801D000F06CFA7C
:100B200028003030FFF7F1FA002801D000F064FA15
:100B3000202000900024019469462800303000F005
:100B40000BFF002801D000F057FA7027029703949A
:100B5000022004900694002202A928003030FFF7FA
:100B600008FC002801D000F047FA6020029004221F
:100B700002A928003030FFF7FCFB002801D000F06C
:100B80003BFA02970C2202A928003030FFF7F1FB54
:100B9000002801D000F030FA28003030FFF797FE2F
:100BA0000422290008312D4800F00AFD286B046456
:100BB0004463FA2149008163042128003030FFF7A3
:100BC000B3FA002128003030FFF7AEFA0C212800DC
:100BD0003030FFF7A9FA286BC1680E43C66023E0E6
:100BE00040228852885A4000081894228A58442388
:100BF000C35AD31AEE8902004432168098199423FE
:100C0000C8509823CB58168D9B1B2E8916859E198C
:100C100098228E50142100F0DFFE688530001421E8
:100C200000F0DAFEA8852C706879012803D16420D1
:100C300000F0EEFE6C7128780128F5D107494020BC
:100C4000085A401C82B2142ACAD10020C8E700000A
:100C500014100240001400480024014094000020B9
:100C6000B8000020000000200004004038B590B01B
:100C70003022002104A800F0C7F9102200216846A4
:100C800000F0C2F912200490012007900990102072
:100C900008900A9002240C9400250D95A020800352
:100CA0000E900F9504A800F0C7FE002801D000F0B8
:100CB000A3F907200090019402950395012168464D
:100CC00001F080F8002801D000F096F911B030BD95
:100CD000FEB5884C607901282FD0208A401C002561
:100CE00081B20A2902DD0020012161702082608A20
:100CF000401C218D82B2914207D260828021C900BE
:100D00009020C00500F04AFA00206082A08AA16FFE
:100D1000A2780092002A08D0022A08D002D3032A1F
:100D200003D006E00021401C03E0491C00E0002144
:100D30000020A082A167A678042E00D1D0E0162062
:100D4000275E6078012800D0C8E0207969460871E4
:100D5000618BE289891A6A461181A18B2289891ADD
:100D60006A46D18022899649009B002B05D0022B30
:100D700069D040D3032B4BD08CE0A06F884204D3C2
:100D8000608D642801DA01260027A06F8D49884212
:100D900000D304261A20205E618D0200643A8A4244
:100DA00006DB814207DA208BE9214900884202DB19
:100DB000022669460D71019800142421615E401AD3
:100DC000322100F0F5FD3F18019800142421615EE6
:100DD0004018322100F0ECFD3F1801980014242146
:100DE000615E4900401A2621615E40184B2100F0E7
:100DF000DFFD3F184EE0A28A8A4203DB0326401C37
:100E00006946087168460079052843DD042641E0FB
:100E10001C20205E904201DA002700E0C827A06F66
:100E2000884237D3618919204843FA21890000F0AC
:100E3000BFFD618D80B2884202D20026A56729E0FD
:100E40000126002726E0A08D5F49884201DB0026AD
:100E500020E0E0895D49884207DA5D48824204DB90
:100E60000126002769460D7114E0029F3FB2E18A16
:100E700000912020205E381A0A2100F099FD009987
:100E8000091800912020205E3818142100F090FDF0
:100E900000990F18029800B2E08301980014608452
:100EA000684600792071A08CE08401980014A08429
:100EB000029800B2208438B280214901884210DBB8
:100EC0004F1E38B28110490F0818C01081B2EE22AF
:100ED0005200914209DB501E20836570E782A670A4
:100EE000F7BD0028EDD50027EBE71829F4DC00203A
:100EF000F2E7000000000020F0B536498A78CB7890
:100F000001200870088B0400323080B2324D1F007F
:100F100050D0022B01D028D307E030480024042A07
:100F200006D10D6B6C632C640885CB708A70F0BDA4
:100F3000EB358E89AE420BDB0C20C8672848294A66
:100F40004A83294A8A830A6B546301230022EBE710
:100F50004E89AE42E8DBCC672448254A4A83254ABD
:100F60008A830A6B14640023F0E7042A02D08F8975
:100F7000AF4200DA02230D6BCE6F002E01D16C63FD
:100F800008E0042E01D1AC6304E0082E01D1EC632B
:100F900000E02C6480240C59002C01D16863C4E764
:100FA000042C01D1A863C0E7082C01D1E863BCE799
:100FB0002864BAE7042ADDD04F89AF42DBDAD9E7EB
:100FC000017D000081A90300C6070000490200005E
:100FD0009304000000000020AF0800008813000008
:100FE00010270000F80A0000F1050000307500002D
:100FF0007C0500001D04000080B572B600F0EEF91B
:10100000FCE770477047704710B5040008001100F6
:101010000200200000F09AFF200010BDFFB5002262
:10102000012301932AE0052602E0604FB842FAD17D
:10103000AE402643029C26605D4C2668DC43264079
:101040004D68ED0300D51E43594D2E606E68264055
:101050004F68BF0300D51E436E60AE6826404F68E0
:10106000FF0200D51E43AE60EE6834404E68B60203
:1010700002D526001C003443EC60521C0B681C0097
:10108000D44000D183E0019D95402B40F5D0540021
:101090000327A740FE4302964E68012E05D0022E7C
:1010A00003D0112E01D0122E0FD18768029E3E4030
:1010B000CF68A740374387604668AE434D682D0927
:1010C000019F2F40974037434760C568029E2E40DE
:1010D0008D68A5403543C56095006E4675704D68B6
:1010E000022D01D0122D1AD1D508AD0045192E6A56
:1010F00003966E4677781C263E406F463E70039EF0
:10110000B4460F276E463678B7406646BE43B446AF
:101110000F696E463678B740664637432F620768D8
:101120000326029D3D404F683740BC462700644679
:10113000BC402C4304604C68E4009ED51D4C2468E0
:10114000019D25431B4C25602468019D2540029587
:10115000029C194C9508AD006419029424686D46F0
:101160006F780C253D400F27AF40BC439027FF050B
:10117000B84201D100265BE7104FB84201D1019E71
:1011800056E70F4FB84200D04FE7022650E7FFBDA9
:10119000002A01D0816170478162704742690B006B
:1011A00013401B049143194381617047000C0048B0
:1011B00000040140181002400800014000040048EB
:1011C0000008004810B5040001D1012010BD022024
:1011D00021216054206801680D4A0A40616811436A
:1011E000A2680A43E168114322690A436169114315
:1011F000A2690A43E16911430160200000F0B3F8DD
:101200000020A06301212122A1542021605410BD9F
:101210000FC0FFFFF2B50400002000252021615C13
:10122000012901D10220F2BD01262027E655022125
:101230002127E75D012F20D12127E155A0632068F8
:101240000168B14301600099200000F07BF820683C
:10125000E16A0029016803D00E220A43026007E018
:101260000A220A4302602068016804229143016057
:10127000206801680E43066002E02022A054022587
:101280002800F2BDFEB5C16B0968019101680A68CA
:10129000009220220423019C056C0426AE402640C7
:1012A00011D0009C1C400ED00C68224002D10A686C
:1012B0009A430A60016C8B40C16B4B60C16A002984
:1012C0003FD08847F7BD012302240025019EB44684
:1012D000066C0227B7406646374016D0009E26406F
:1012E00013D00E68324005D10A680A26B2430A605C
:1012F00021214354016C8C40C16B4C60202145542A
:10130000816A00291DD08847F7BD08226446066C13
:101310000827B740274014D0009C224011D00A680B
:101320000E24A2430A60016C01228A40C16B4A600C
:1013300083632121435420214554016B002900D0AF
:101340008847F7BD30B50124056CAC40C56B6C60B7
:10135000046863604068102802D1A260E16030BD7B
:10136000A160E26030BD10B5040020680449401857
:10137000142100F031FB800020640248E06310BDBE
:10138000F8FFFDBF0000024010B5C2001823134053
:10139000FF249C40E2438907090E9940030004D4CE
:1013A0001D489B089B00C01806E01C4B0007000F5F
:1013B000083880088000181803681A40114301603B
:1013C00010BD80B5FFF7E0FF01BD010005D401218C
:1013D000C006C00E8140124801607047BFF34F8FB6
:1013E000104811490860BFF34F8F00BFFDE710B5EB
:1013F000401E80214904884201D3012010BD0B4CBE
:10140000606003210020C043FFF7BEFF0020A06002
:101410000721216010BD000000E400E01CED00E0A9
:1014200000E100E00400FA050CED00E010E000E04F
:1014300080B50648016810220A430260002000F0CF
:10144000ADFDFFF7CDF9002002BD000000200240F5
:10145000F8B504000025002C01D10120F2BDA06BDD
:10146000002805D1E063342160542000FFF7CDF956
:1014700010210122A06B084003D1236804209E683C
:10148000064000D090E0A76B4A4E3E40022737430B
:10149000A7639E68B607B60F012E05D11E681640D9
:1014A0000FD1DE6836040CD4DE681827BE43A76867
:1014B0003743DF6023681E69B600B60867683743A4
:1014C0001F612368DE683C4F3740DF60A36A012B51
:1014D00001D0860200E000262369022B01D1009092
:1014E00000E00095A37E207E8003677EFF03074314
:1014F000580338430643E0683043009E06432420E7
:10150000205C40003043E67E012E0CD1002B03D13D
:1015100003000803184306E0A36B20261E43A663BE
:10152000E36B1343E363E369FF26C236B34202D0A1
:101530000343206A18432368DE680643DE60E36ADB
:101540000E06B3420DD0012B0BD0022B09D0032B7A
:1015500007D0042B05D0052B03D0062B01D0072B79
:101560000CD123685E690727BE435E6123685E690C
:101570002C27E75D7F077F0F37435F610223DB4343
:101580002668F6680D4F3740874205D1E563A06BAA
:1015900003401A43A2630BE0A06B03401943A1630D
:1015A000E06B1043E06302E0A06B0143A1630125FF
:1015B0002800F2BDFFFEFFFF1902FEFFE7FF3F8399
:1015C000F7B50400002500272068806840073BD459
:1015D0003420205C012801D10220FEBD01263421E7
:1015E0006654607E012804D0200000F01FF9070037
:1015F0002BD1029BA06B1649014030020843A06327
:10160000E563342025548648216B88628548216B28
:10161000C8628548216B08631C2021680860206827
:10162000416810220A4342602068C1680E43C660C8
:10163000019A21684031206BFFF7ECFD206881683A
:1016400004220A43826000E002273800FEBD000049
:10165000FEF1FFFFF8B504002068012708211025DE
:1016600004220368134002D04368134005D1036885
:101670000B4031D043680B402ED0A36B2B4003D1DD
:10168000A36B8E011E43A663C368C02636011E40AD
:101690001CD1A37E002B19D10068014016D0206810
:1016A000806802400BD1206840680C218843216883
:1016B0004860A06B7B4901403943A16306E0A06B01
:1016C00020210143A163E06B3843E0632000FFF772
:1016D00013FC0C20216808608026206800683040D8
:1016E0000CD020684068304008D0A06B290301432B
:1016F000A163200000F074FC206806602068016887
:10170000294012D0416829400FD0A16A012902D096
:10171000C1680F4007D0E16B02220A43E263056013
:10172000200000F05EFC20680560F1BDF8B5040003
:101730000025002600953420205C012801D10220DC
:10174000F2BD01203423E054226893685B075CD427
:101750000B689840009054484B68544FBB42936AC2
:10176000009F44D01F439762E26A80235B059A4240
:101770001FD0012A1DD0022A1BD0032A19D0042A07
:1017800017D0052A15D0062A13D0072A11D02268AF
:101790008B6857697F077F0FBB420AD053690727C1
:1017A000BB435361226853690F7A7F077F0F1F4342
:1017B00057610A68102A17D0112A2BD18022D20330
:1017C00003681A4302600868102823D15348006850
:1017D000534900F001F90A2148430090009800287D
:1017E00018D00098401EF8E780221204E8E7BB43B7
:1017F00093620968102906D011290BD14949026862
:101800001140016006E04849F9E7A16B20220A4334
:10181000A2630126342025543000F2BD00000000F0
:10182000B1180008351900083F190008F8B505007F
:10183000002000902868012481688907890F012908
:1018400005D1016821402AD1C168090427D4102795
:101850008168364A0A401AD18168214381602F4845
:1018600000682F4900F0B8F801E00098401E009091
:1018700000980028F9D100F0B5FB06002868006840
:1018800020400CD100F0AEFB801B0328F6D3A86BE0
:101890000743AF63E86B0443EC630120F2BD002013
:1018A000F2BD0000FFFEFFFF08270140011000000D
:1018B00010B5416A8A6B502313402AD1886B80226D
:1018C000920002438A630868C268C0231B01134068
:1018D0001BD18A7E002A18D10A681268120714D513
:1018E000012283685B0709D443680C24A343436047
:1018F000886B0F4B03401A438A6306E0886B2023F2
:1019000003438B63C86B0243CA630800FFF7F4FA12
:1019100010BD096B096B884710BD000090000020C6
:1019200040420F00FFFFBFFFFFFF7FFF1700008057
:10193000FFFEFFFF80B5406A00F05AFB01BD80B595
:10194000406A816B40220A438263C16B04220A43CE
:10195000C26300F046FB01BDF0B53C22825C012A67
:1019600001D10220F0BD02003C3201231370022499
:101970003D25445505686E68AC687027BE430F6806
:1019800037436F600568084EB54202D0074EB54236
:1019900004D18026B44349682143A9603D214354C2
:1019A00000201070F0BD0000002C01400004004039
:1019B000CA0F00D0494203105A400DD004B500D3DD
:1019C000404200F009F8009AD20701D3494212427E
:1019D00000D5404204BD0000094214D088420FD314
:1019E0000122030C01D100041204002300185B4102
:1019F0008B4200D35B1A5241F8D319001000704794
:101A000001000020704708B500F0F4FA08BDFEE7B9
:101A100038B5050000F0E6FA04000020C043854216
:101A200002D0044800782D1800F0DCFA001BA84210
:101A3000FAD331BD84000020FEB5060019D0AD4CAC
:101A40003078C00717D58027BF0260680C2101409D
:101A5000042909D060680C210140082941D160683F
:101A60007908084088423CD12068074003D070685C
:101A7000002800D19BE1307880071AD5F827FF4372
:101A800060680C21014007D060680C2101400829E2
:101A90005AD16068C00357D42068800703D5F06826
:101AA000012800D083E1206807403069C000384336
:101AB00020603078000778D50227F0690028606A36
:101AC00064D001210143616200F08CFA0500606A74
:101AD00038406AD100F086FA401B0228F7D903206B
:101AE000FEBD73687908012B09D0B348B34A002BB7
:101AF00009D0052B07D120688A00024322602068A4
:101B00000143216005E021680A4022602168084005
:101B10002060706800280BD000F064FA050020688F
:101B20003840A8D100F05EFA401B6528F7D3D6E70D
:101B300000F058FA0500206838409CD000F052FAB6
:101B4000401B6528F7D3CAE7F068002820680ED04C
:101B500001210143216000F045FA0500206880075B
:101B6000A1D400F03FFA401B0228F7D9B7E70121C2
:101B70008843206000F036FA05002068800798D579
:101B800000F030FA401B0228F7D9A8E7012188436A
:101B9000606200F027FA0500606A384005D000F066
:101BA00021FA401B0228F7D999E70427306838400A
:101BB00062D000200190B806E169014008D1E169D6
:101BC0000143E161E1690840009000980120019023
:101BD0007B480068C00512D479480068A10D014314
:101BE0007748016000F0FEF9050075480068C005FF
:101BF00005D400F0F7F9401B6528F6D36FE7B0680D
:101C0000012808D0002801D1206A09E00528206AAF
:101C100006D138432062206A01210143216205E098
:101C2000012188432062206AB8432062A4480090C2
:101C3000B06800280CD000F0D5F90500206A8007B4
:101C400013D400F0CFF9401B00998842F6D346E741
:101C500000F0C8F90500206A800706D500F0C2F937
:101C6000401B00998842F6D339E70198002803D039
:101C7000E06994490140E1613078C0061DD5706982
:101C8000F825ED43012837D1606B07436763606B2C
:101C900001210143616300F0A5F90700606B800733
:101CA00005D400F09FF9C01B0228F7D917E7606B35
:101CB0000540B069C00028436063306A002878D0CE
:101CC00061680C220A40082A5CD08027BF048D4935
:101CD0000228206848D10140216000F083F9050006
:101CE0002068384022D000F07DF9401B0228F7D947
:101CF000F5E600BF001002400421C9438842606B32
:101D000002D101406163D2E707436763606B012141
:101D10008843606300F066F90500606B8007CCD5EE
:101D200000F060F9401B0228F7D9D8E6E06A0F21DD
:101D30008843F16A0143E162606873490140B06A17
:101D40000843716A0143616020687908014321609A
:101D500000F048F90500206838402AD100F042F927
:101D6000401B0228F7D9BAE60140216000F03AF999
:101D70000500206838401CD000F034F9401B0228D0
:101D8000F7D9ACE6012812D06068E16A80225202DD
:101D90000240736A9A420AD10907090FF26A914216
:101DA00005D1F02189030140B06A814201D00120B0
:101DB000FEBD0020FEBD0000FFFFFBFFFFFFFEFF9A
:101DC00000700040F8B5040060D000914F480068F2
:101DD000C107C90F009881420CD24C48016801220A
:101DE0009143009A0A4302600068C107C90F009836
:101DF00081424BD12168464D022001420CD0490757
:101E000004D56968E022D2000A436A606968F0225A
:101E10009143A2680A436A6001272168394025D0AE
:101E20006168012902D12868800303E0022903D1F7
:101E30002868800103D429E02A68104026D0686809
:101E4000032290430143696000F0CCF80600686803
:101E50000C21014060688000814207D000F0C2F888
:101E6000801B17498842F2D30320F2BD274800990E
:101E700002683A4091420BD20168B943009A0A4382
:101E80000260006807400098874201D00120F2BD3F
:101E90002078400705D568681E490140E06808437E
:101EA000686000F011F81C496A681206120F895C1C
:101EB000C8401A490860002000F070F80020F2BD08
:101EC00089130000FFFFFFEF154B196815480C221E
:101ED0000A40082A00D0704730B50F2213A48D0C99
:101EE0001540645D9B6AC90307D500BF13A11A4062
:101EF000895CFFF771FD604330BD20000A4948430B
:101F000030BD0000FFFFFFFEFFFFC2FF00200240C8
:101F100000100240FFF8FFFF34210008900000206D
:101F20000410024000127A0000093D00020304057B
:101F3000060708090A0B0C0D0E0F1010010203040E
:101F400005060708090A0B0C0D0E0F101206130ADE
:101F50001A43130C1A4300BF094205D0830705D06A
:101F60000270401C491EF9D170470000130010395F
:101F700006D330B41400150010393CC0FCD230BC7C
:101F8000490700D30CC000D504C0890002D30280E9
:101F9000801C002900D502707047FEE738B50500A7
:101FA0000D4CFA2080002178FFF716FD01000B4848
:101FB0000068FFF711FDFFF71AFA00280AD1042D77
:101FC00008D2002229000020C043FFF7FAF9A560DB
:101FD000002032BD012032BD84000020900000208E
:101FE0007047704701484068704700BF8400002078
:101FF0007047FEE77047FEE7FEE7FEE77047704771
:1020000080B500F017F801BD80B50748FFF73AF931
:1020100001BD80B50548FFF71DFB01BD80B5044833
:10202000FEF7FEF801BD0000300100209400002002
:1020300030000020024841680278891841607047EA
:102040008400002070B40123002413E00168001D07
:10205000194202D04D466918491E0C60091D121F15
:10206000042AFAD20D00960701D50C80AD1C1A4047
:1020700000D02C700268001D002AE7D170BC7047A8
:1020800010B5074979441831064C7C44163404E0F5
:10209000081D0A68891888470100A142F8D110BDBF
:1020A00008000000240000009DFFFFFFE00000008A
:1020B0009400002000000000EBE6FFFFAE000000EF
:1020C000300000000000002000F00DF8002801D0D2
:1020D000FFF7D6FF00BF00BF002000BF00BFFEF724
:1020E00041FC00F002F80120704780B500F002F8D2
:1020F00001BDFEE70746384600F002F8FBE7FEE7C1
:1021000080B500BF00BF024A11001820ABBEFBE73C
:10211000260002000548014603B4684680F309889A
:1021200000BF00BF00BF00BFFFF7CEFFA5EDF5FE6B
:1021300070470000000000000000000001020304DE
:102140000607080901488047014800473121000877
:1021500015210008FEE7FEE7FEE7FEE7FEE7FEE7E3
:10216000FEE7FEE7FEE7FEE7FEE7FD0002020001F4
:1021700086000004FD000001F9000004FC000212CA
:022180007A00E3
:0400000508002115B9
:00000001FF
