:020000040800F2
:1000000078050020FD210008392200083B22000865
:1000100000000000000000000000000000000000E0
:100020000000000000000000000000003D22000869
:1000300000000000000000003F22000841220008EC
:10004000430A0008570C0008B71500089F21000854
:10005000A3210008FB210008332300083F230008E8
:100060008523000849220008872300088923000807
:10007000532200088B2300088D2300088F230008DB
:100080005D2200080000000000000000912300082D
:100090000000000093230008952300089723000820
:1000A00000000000992300089B2300089D230008FE
:1000B0009F23000800000000A1230008A3230008DC
:1000C00010B5040001D1012010BD3D20205C0028A6
:1000D00004D13C216054200000F053FCFFE70220D3
:1000E0003D216054211D206800F070FA0120462156
:1000F00060543E2160543F216054402160544121AE
:10010000605442216054432160544421605445218D
:1001100060543D216054002010BD10B5040001D191
:10012000012010BD3D20205C002804D13C216054FA
:10013000200000F085FCD2E710B50400002901D1B1
:100140003E2008E0042901D13F2004E0082901D124
:10015000402000E04120205C012801D0012010BD9A
:100160000220002901D13E2208E0042901D13F22CA
:1001700004E0082901D1402200E04122A0540122DC
:10018000206800F073FB21681148814205D0114AB4
:10019000914202D0104A914204D14A6C80231B0242
:1001A00013434B6422680121824205D088078242B2
:1001B00002D00648824204D190684007400F0628CA
:1001C00002D0106801431160002010BD00040040FF
:1001D000002C0140004401400048014004000E0092
:1001E0000020694608700125300006D0042E35D065
:1001F000082E3AD00C2E3FD045E02068C1682D4A29
:100200000A40C260606A00F07DFC00223100206874
:1002100000F02CFB226828482849234B9A4205D03D
:10022000224B9A4202D0224B9A4209D1136A0B40C8
:1002300006D1136A034003D1536C214F1F4057640A
:100240002268136A194005D1116A084002D110686A
:10025000A8431060002E19D13E2020E02068C1681C
:10026000184A0A40C260A06ACDE72068C168164AF1
:100270000A40C260E06AC6E72068C168134A0A40C3
:10028000C260206BBFE76846057009E0042E01D10B
:100290003F2004E0082E01D1402000E041202554F9
:1002A00068460078F2BD0000002C01400044014087
:1002B00000480140FFFDFFFF440400001111000051
:1002C000FF7FFFFFFFFBFFFFFFF7FFFFFFEFFFFFDA
:1002D000F8B504002068002502260169314015D0D8
:1002E000C168314012D00221C94301610121217747
:1002F0008069800703D0200000F0AAFC05E0200000
:1003000000F0A7FC200000F0A5FC2577206804275A
:100310000169394016D0C168394013D00421C9435E
:10032000016126778069C0218900014003D0200047
:1003300000F08EFC05E0200000F08BFC200000F0B7
:1003400089FC2577206808260169314014D0C168EE
:10035000314011D00821C94301612777C069800766
:1003600003D0200000F074FC05E0200000F071FCD8
:10037000200000F06FFC25772068102102690A40F8
:1003800016D0C268114013D01021C94301612677ED
:10039000C069C0218900014003D0200000F058FC52
:1003A00005E0200000F055FC200000F053FC25770C
:1003B0002068012102690A4008D0C268114005D0B6
:1003C0000121C9430161200000F0F4FD2068802173
:1003D00002690A4008D0C268114005D08021C94393
:1003E0000161200000F07FFF2068402102690A407F
:1003F00008D0C268114005D04021C94301612000E6
:1004000000F072FF2068202102690A4008D0C2680B
:10041000114005D02021C9430161200000F065FF93
:10042000F1BDF1B582B000206B46187002983C23F4
:10043000C05C012801D10220FEBD0120029B3C24AA
:10044000185508272C4EC5020C00002A06D0042A95
:1004500014D0082A24D00C2A32D043E00298006835
:1004600000F0EDF80298006881690F4387618169A7
:10047000042291438161816922690EE0029800683B
:1004800000F011F90298006881690D438561816966
:100490000E4086618169226912020A43826123E06B
:1004A0000298006800F030F902980068C1690F43B3
:1004B000C761C16904229143C161C16922690EE02B
:1004C0000298006800F04FF902980068C1690D4376
:1004D000C561C1690E40C661C169226912020A4341
:1004E000C26101E069460870002002993C228854EC
:1004F00068460078FEBD0000FFFBFFFFF8B5040072
:100500000026684606703C20205C012801D10220AC
:10051000F2BD27003C3701253D7002203D22A0544A
:1005200020688268284B13408360086802003FD02F
:1005300010283DD020283BD0302839D0402830D05A
:10054000502820D0602825D0702806D02B03984250
:1005500035D05B0098420AD02FE0CB684A688968A2
:10056000206800F05EF920688168772208E0CB6897
:100570004A688968206800F054F920688168AA03F5
:100580000A4382601BE0CA684968206800F01EF9CF
:1005900050210EE0CA684968206800F028F96021FF
:1005A00007E0CA684968206800F010F9402100E0BF
:1005B0000100206800F02DF901E0684605703D203B
:1005C00025543E70FFF76CFE8800FFFFF0B506680B
:1005D000784A794B8024E405784DA84203D0A042A4
:1005E00001D0984208D17027BE4337004E683E4381
:1005F000A8420BD0A04209D0984207D0704B984235
:1006000004D0904202D0704B984203D16D4B3340DE
:10061000CE681E4380239E434B69334303608B683F
:10062000C3620B688362A84204D0904202D0664A3B
:10063000904201D10969016301214161F0BDF8B522
:10064000026A01239A430262036A4268846973253D
:10065000AC430D68254300950224A3438C681C43DA
:10066000594B544D554EB04203D0A84201D0984248
:100670000AD10827BC432700CC683C430427BC436D
:10068000B04203D0A84201D0984205D16A4B134032
:100690004D691D438A692A434260009A8261496814
:1006A00041630462F1BD70B5026A10239A4302628D
:1006B000026A43688469614D25400C6824022C431A
:1006C0002025AA438D682D0115433C4A904208D14C
:1006D000802295432E00CA68150135434022954378
:1006E00005E0344A904202D0374A904206D1544A3B
:1006F0001A404B698E691E43B30013434360846103
:1007000049688163056270BD70B5026A4D4B134044
:100710000362046A4268C56973239D430B682B43D7
:10072000494D25408C6824022C43244DA84207D112
:10073000464D2540CC6826022E43454C344005E00A
:100740001C4DA84202D0204DA84206D1414D154073
:100750004A698E69164332012A434260C36149687F
:10076000C163046270BD30B5026A3B4B1340036243
:10077000036A4268C469314D25400C6824022C4349
:10078000364D1D408B681B032B430C4DA84205D0F2
:10079000084DA84202D00C4DA84204D1304D15405E
:1007A0004A6992012A434260C46149680164036254
:1007B00030BD00000044014000040040002C014016
:1007C00000200040FFFCFFFF0048014030B5036AF5
:1007D000046A0125AC4304628469F025AC4312012C
:1007E000224382610A2293431943016230BD30B52E
:1007F000036A1024A34303628469036A194D2540E8
:1008000012032A438261A022934309011943016222
:1008100030BD826870239A43114307220A438260E5
:10082000704730B58468104D254029430A431902AA
:100830001143816030BD0000FFFCFFFFFF8CFFFF14
:10084000FFF3FFFFFFFEFFFFFFFDFFFFFFF7FFFFCF
:10085000FFFBFFFFFFCFFFFFFFEFFFFFFFDFFFFF0C
:10086000FFBFFFFFFF0FFFFFFF00FFFF10B5C9062F
:10087000C90E036A01248C40A3430362036A8A40C1
:100880001A43026210BD30B501684118446862081D
:100890008A188368E40704D54C461B1901E0641CE0
:1008A00009D1914203D00C7864B2491C01E00C30AC
:1008B00030BD0D78491C1D705B1C002CEFD4641EEC
:1008C000F7D5EEE781B0012055490A6802430A6076
:1008D0000A68104000900098802040054A68024352
:1008E0004A60496808400090009801B0704770B5B0
:1008F00086B004001422002101A800F0F7FC206853
:10090000484988423BD14848410D42680A43426009
:1009100042681140009100998021890202680A43CF
:10092000026000680140009100980F2001900320B0
:1009300002900025039501A99020C00500F0E0FC7D
:100940003A4E3B4830607560B5608020F060803082
:100950003061800070612020B061F561300000F0EE
:1009600071F8002801D000F0B9FC266374620022FF
:1009700000210C2000F0B9FD0C2000F0BAFD06B0FB
:1009800070BD00682B49884200D0704780B50220B6
:1009900029490A6802430A600968084000900098E3
:1009A00000220021102000F0A0FD102000F0A1FD89
:1009B00001BD70B586B0040014220021684600F025
:1009C00095FC20681B49884228D1480B16490A68C3
:1009D00002430A600A681040059005988020C00212
:1009E0000A6802430A600968084005900598C0201B
:1009F0000090022401940025029503950126049697
:100A000069469020C00500F07BFC0094019402959B
:100A1000039504966946094800F072FC06B070BD63
:100A20001810024000240140141002403001002040
:100A300008000240000400401C100240000400486E
:100A40007047FEE710B5040001D1012010BD02205F
:100A500021216054206801680D4A0A4061681143F1
:100A6000A2680A43E168114322690A43616911439C
:100A7000A2690A43E16911430160200000F0D7F840
:100A80000020A06301212122A1542021605410BD27
:100A90000FC0FFFFF2B50400002000252021615C9B
:100AA000012901D10220F2BD01262027E6550221AD
:100AB0002127E75D012F20D12127E155A063206880
:100AC0000168B14301600099200000F09FF82068A0
:100AD000E16A0029016803D00E220A43026007E0A0
:100AE0000A220A43026020680168042291430160DF
:100AF000206801680E43066002E02022A05402250F
:100B00002800F2BD70B50022002401212123C35C1E
:100B1000022B03D004228263012415E003681D68C0
:100B20000E26B5431D6003681D688D431D60036C70
:100B300001259D40C36B5D602123C1542021425497
:100B4000416B002900D08847200070BDFEB5C16B05
:100B50000968019101680A68009220220423019C1F
:100B6000056C0426AE40264011D0009C1C400ED0DF
:100B70000C68224002D10A689A430A60016C8B40DB
:100B8000C16B4B60C16A00293FD08847F7BD012384
:100B900002240025019EB446066C0227B740664633
:100BA000374016D0009E264013D00E68324005D143
:100BB0000A680A26B2430A6021214354016C8C4022
:100BC000C16B4C6020214554816A00291DD08847A3
:100BD000F7BD08226446066C0827B740274014D0AA
:100BE000009C224011D00A680E24A2430A60016CC6
:100BF00001228A40C16B4A60836321214354202132
:100C00004554016B002900D08847F7BD30B5012459
:100C1000056CAC40C56B6C6004686360406810286C
:100C200002D1A260E16030BDA160E26030BD10B5CC
:100C30000400206804494018142100F0A1FC800041
:100C400020640248E06310BDF8FFFDBF00000240D1
:100C5000704770477047FEE7F0B58DB000F0ACFC10
:100C600000F07CF914220021684600F03FFB802050
:100C7000C003B44C216801432160216808400590FD
:100C80000598802080022168014321602168084086
:100C9000059005988020C0022168014321602168E9
:100CA00008400590059800220321A74800F0E7FBC3
:100CB000C425ED00002229009020C00500F0DFFBD4
:100CC00003270097012601960020029003906946B1
:100CD0009D4800F015FB102000900020019002902C
:100CE00069469020C00500F00BFB0095019600209E
:100CF0000290039069469020C00500F001FB206837
:100D0000304320602068304000900098002200218D
:100D1000092000F0EAFB092000F0EBFB0C22002187
:100D2000684600F0E3FA894C894820600020606042
:100D3000A060E06026610820606100202083A67624
:100D4000E076FF20C230E06100202062242166545A
:100D5000A662200000F040FC002801D000F0BEFA9E
:100D6000002000903003019004200290694620008A
:100D700000F0A0FD002801D000F0B0FA009669460E
:100D8000200000F097FD002801D000F0A7FA022013
:100D900000906946200000F08DFD002801D000F091
:100DA0009DFA00976946200000F084FD002801D0DC
:100DB00000F094FA1022002109A800F097FA082206
:100DC0000021684600F092FA1C22002102A800F0DF
:100DD0008DFA604D60482863002068636020A86336
:100DE000FA204000E86300202864A864280030301E
:100DF000FFF766F9002801D000F070FA300309907F
:100E000009A928003030FFF779FB002801D000F055
:100E100065FA28003030FFF780F9002801D000F093
:100E20005DFA2020009000200190694628003030B3
:100E300000F064FE002801D000F050FA70270297FD
:100E4000002003900220049000200690002202A9B6
:100E500028003030FFF7E5FA002801D000F03EFA14
:100E600060200290042202A928003030FFF7D9FA4E
:100E7000002801D000F032FA02970C2202A92800C3
:100E80003030FFF7CEFA002801D000F027FA280012
:100E90003030FFF78EFD042229000831200000F0D9
:100EA00053FC286B002101644163FA2149008163EE
:100EB000042128003030FFF73FF9002128003030AE
:100EC000FFF73AF90C2128003030FFF735F9286B8D
:100ED000C1680E43C66023E0060040202652205A17
:100EE00040002018942161584422825A8A1AEB89C2
:100EF000010044310B80D0189422A0509822A258AF
:100F00000B8DD21A2B890B85D61898216650142187
:100F100000F036FB68853000142100F031FBA88515
:100F200000266879012803D1642000F015FE6E7157
:100F300028780128F4D14020205A401C81B214297D
:100F4000CAD1CAE7141002400014004894000020DF
:100F500000240140000000200004004018B591B0BA
:100F60003422002104A800F0C1F9102200216846B3
:100F700000F0BCF93020049001200C900990102062
:100F80000A9000240D9404A800F0FAFD002801D076
:100F900000F0A4F90720009003200190029403942C
:100FA0000121684601F002F8002801D000F096F90E
:100FB00012B010BDFEB5884C607901282FD0208A70
:100FC000401C002581B20A2902DD00200121617048
:100FD0002082608A401C218D82B2914207D26082B9
:100FE000802189009020C00500F04FFA0020608227
:100FF000A08AA16FA2780092002A08D0022A08D005
:1010000002D3032A03D006E00021401C03E0491C60
:1010100000E000210020A082A167A678042E00D164
:10102000D0E01620275E6078012800D0C8E0207943
:1010300069460871618BE289891A6A461181A18B20
:101040002289891A6A46D18022899649009B002B01
:1010500005D0022B69D040D3032B4BD08CE0A06F7E
:10106000884204D3608D642801DA01260027A06F2E
:101070008D49884200D304261A20205E618D02002B
:10108000643A8A4206DB814207DA208BE921490073
:10109000884202DB022669460D7101980014242162
:1010A000615E401A322100F057FA3F18019800148F
:1010B0002421615E4018322100F04EFA3F18019859
:1010C00000142421615E4900401A2621615E401807
:1010D0004B2100F041FA3F184EE0A28A8A4203DB1E
:1010E0000326401C6946087168460079052843DDDF
:1010F000042641E01C20205E904201DA002700E037
:10110000C827A06F884237D3618919204843FA2144
:10111000890000F021FA618D80B2884202D2002657
:10112000A56729E00126002726E0A08D5F498842B7
:1011300001DB002620E0E0895D49884207DA5D484E
:10114000824204DB0126002769460D7114E0029FEC
:101150003FB2E18A00912020205E381A0A2100F077
:10116000FBF90099091800912020205E38181421FD
:1011700000F0F2F900990F18029800B2E08301988C
:1011800000146084684600792071A08CE084019886
:101190000014A084029800B2208438B28021490152
:1011A000884210DB4F1E38B28110490F0818C0105A
:1011B00081B2EE225200914209DB501E20836570FD
:1011C000E782A670F7BD0028EDD50027EBE71829C8
:1011D000F4DC0020F2E7000000000020F0B5364902
:1011E0008A78CB7801200870088B0400323080B2F6
:1011F000324D1F0050D0022B01D028D307E03048D9
:101200000024042A06D10D6B6C632C640885CB7016
:101210008A70F0BDEB358E89AE420BDB0C20C867BF
:101220002848294A4A83294A8A830A6B546301233E
:101230000022EBE74E89AE42E8DBCC672448254A22
:101240004A83254A8A830A6B14640023F0E7042A40
:1012500002D08F89AF4200DA02230D6BCE6F002ED1
:1012600001D16C6308E0042E01D1AC6304E0082EC8
:1012700001D1EC6300E02C6480240C59002C01D1D6
:101280006863C4E7042C01D1A863C0E7082C01D12E
:10129000E863BCE72864BAE7042ADDD04F89AF428F
:1012A000DBDAD9E7017D000081A90300C607000051
:1012B000490200009304000000000020AF08000075
:1012C00088130000102700004F0B0000F1050000FC
:1012D00030750000990500001D04000080B572B64D
:1012E00000F010F9FCE770477047704710B5040034
:1012F000080011000200200000F02AFF200010BDAD
:10130000F0B585B000220F23039331E0052303E0FD
:10131000624B9842FAD10223B3402B432360604BC7
:101320001D68019BDC4325404B68DB0302D52B0085
:10133000019D1D435A4B1D605D6825404E68B603F4
:1013400002D52E00019D35435D609D6825404E68A5
:10135000F60202D52E00019D35439D60DD682C40CC
:101360004D68AD0202D52500019C2C43DC60521C67
:101370000B681C00D44000D17FE00124944023403E
:101380000193019B002BF2D0530003259D40EE43B7
:1013900002964D68AE07B60F012E03D0AD07AD0F14
:1013A000022D0ED18568029E2E40CD689D403543AA
:1013B00085604568A5434C68E606F60F96402E43C7
:1013C000466094006D466C7003244D682540032DE3
:1013D00025D0C568029E2E408D689D403543C5606E
:1013E0004D682540022D1AD1D508AD0045192E6A49
:1013F00004966E4677781C263E406F463E70049EEB
:10140000B446039F6E463678B7406646BE43B44640
:101410000F696E463678B740664637432F620568D7
:10142000029E2E404D682C409C40344304604B6823
:10143000C024A4021C409AD001231A4C24681C43E7
:10144000184D2C602C681C400294029C164C950888
:10145000AD00641925686E4677780C263E40039FE0
:10146000B740BD439027FF05B84201D1002353E7A1
:101470000E4FB84200D04BE74EE705B0F0BD002A52
:1014800001D0816170478162704742690B0013404F
:101490001B04914319438161704700000008004814
:1014A00000040140181002400800014000040048F8
:1014B00010B5C20018231340FF249C40E243890763
:1014C000090E9940030004D41D489B089B00C018D6
:1014D00006E01C4B0007000F083880088000181831
:1014E00003681A401143016010BD80B5FFF7E0FFAB
:1014F00001BD010005D40121C006C00E8140124883
:1015000001607047BFF34F8F104811490860BFF367
:101510004F8F00BFFDE710B5401E8021490488426F
:1015200001D3012010BD0B4C606003210020C0439B
:10153000FFF7BEFF0020A0600721216010BD000062
:1015400000E400E01CED00E000E100E00400FA052A
:101550000CED00E010E000E0CA0F00D0494203109B
:101560005A400DD004B500D3404200F009F8009A6B
:10157000D20701D34942124200D5404204BD0000C7
:10158000094214D088420FD30122030C01D1000478
:101590001204002300185B418B4200D35B1A5241B6
:1015A000F8D319001000704701000020704708B5FB
:1015B00000F0F6FD08BDFEE780B506480168102280
:1015C0000A430260002000F0EDFDFFF77BF90020E8
:1015D00002BD000000200240F8B504000025002CE8
:1015E00001D10120F2BDA06B002805D1E0633421B8
:1015F00060542000FFF77BF910210122A06B084006
:1016000003D1236804209E68064000D090E0A76BB9
:101610004A4E3E4002273743A7639E68B607B60F7F
:10162000012E05D11E6816400FD1DE6836040CD499
:10163000DE681827BE43A7683743DF6023681E694A
:10164000B600B608676837431F612368DE683C4F01
:101650003740DF60A36A012B01D0860200E000263C
:101660002369022B01D1009000E00095A37E207E2B
:101670008003677EFF030743580338430643E0684F
:101680003043009E06432420205C40003043E67E29
:10169000012E0CD1002B03D103000803184306E0F0
:1016A000A36B20261E43A663E36B1343E363E36946
:1016B000FF26C236B34202D00343206A1843236890
:1016C000DE680643DE60E36A0E06B3420DD0012BEE
:1016D0000BD0022B09D0032B07D0042B05D0052BF0
:1016E00003D0062B01D0072B0CD123685E69072796
:1016F000BE435E6123685E692C27E75D7F077F0F2D
:1017000037435F610223DB432668F6680D4F37409D
:10171000874205D1E563A06B03401A43A2630BE047
:10172000A06B03401943A163E06B1043E06302E048
:10173000A06B0143A16301252800F2BDFFFEFFFF5E
:101740001902FEFFE7FF3F83F7B5040000250027DD
:101750002068806840073BD43420205C012801D1F8
:101760000220FEBD012634216654607E012804D08B
:10177000200000F027F907002BD1029BA06B16492F
:10178000014030020843A063E563342025548A48B1
:10179000216B88628948216BC8628948216B086384
:1017A0001C20216808602068416810220A434260BA
:1017B0002068C1680E43C660019A21684031206BE1
:1017C000FFF768F92068816804220A43826000E01C
:1017D00002273800FEBD0000FEF1FFFFF8B504004F
:1017E000206801270821102504220368134002D035
:1017F0004368134005D103680B4031D043680B4068
:101800002ED0A36B2B4003D1A36B8E011E43A66386
:10181000C368C02636011E401CD1A37E002B19D1FF
:101820000068014016D02068806802400BD1206813
:1018300040680C21884321684860A06B81490140C1
:101840003943A16306E0A06B20210143A163E06B53
:101850003843E0632000FFF7C1FC0C2021680860DA
:1018600080262068006830400CD0206840683040F6
:1018700008D0A06B29030143A163200000F0B4FC51
:101880002068066020680168294012D0416829401C
:101890000FD0A16A012902D0C1680F4007D0E16BC7
:1018A00002220A43E2630560200000F09EFC2068EB
:1018B0000560F1BDF8B50400002500260095342030
:1018C000205C012801D10220F2BD01203423E05424
:1018D000226893685B0765D40B68984000905A486B
:1018E0004B685A4FBB42936A009F49D01F4397628F
:1018F000E26A80235B059A421FD0012A1DD0022A8A
:101900001BD0032A19D0042A17D0052A15D0062A7D
:1019100013D0072A11D022688B6857697F077F0F81
:10192000BB420AD053690727BB43536122685369FE
:101930000F7A7F077F0F1F4357610A68102A19D05B
:10194000112A1AD0122A32D18022520403681A4373
:101950000260086810282AD1584800685849FFF7E3
:101960000FFE0A2148430090009800281FD00098DD
:10197000401EF8E780221204E8E78022D203E5E760
:10198000BB4393620968102908D0112908D0122995
:101990000DD14C4902681140016008E04A49F9E75D
:1019A0004A49F7E7A16B20220A43A26301263420AB
:1019B00025543000F2BD0000511A0008D91A000861
:1019C000E31A0008F8B505000020009028680124FB
:1019D00081688907890F012905D1016821402ED12D
:1019E000C16809042BD410278168394A0A401ED1E6
:1019F000816821438160314800683149FFF7C0FDAB
:101A000001E00098401E009000980028F9D100F0F5
:101A1000EDFB060028680068204010D100F0E6FBCE
:101A2000801B0328F6D3286800682040F2D1A86BF9
:101A30000743AF63E86B0443EC630120F2BD002071
:101A4000F2BD0000FFFEFFFF08270140011000006B
:101A500010B5416A8A6B502313402AD1886B8022CB
:101A6000920002438A630868C268C0231B011340C6
:101A70001BD18A7E002A18D10A681268120714D571
:101A8000012283685B0709D443680C24A3434360A5
:101A9000886B104B03401A438A6306E0886B20234F
:101AA00003438B63C86B0243CA630800FFF796FBCE
:101AB00010BD096B096B884710BD00009000002025
:101AC00040420F00FFFFFFFEFFFF7FFFFFFFBFFF52
:101AD00017000080FFFEFFFF80B5406A00F08CFB1E
:101AE00001BD80B5406A816B40220A438263C16BAD
:101AF00004220A43C26300F078FB01BDF0B53C222A
:101B0000825C012A01D10220F0BD02003C32012397
:101B1000137002243D25445505686E68AC68702733
:101B2000BE430F6837436F600568094EB54205D064
:101B30009E07B54202D0074EB54204D18026B44379
:101B400049682143A9603D21435400201070F0BD35
:101B5000002C01400004004038B5050000F046FBB1
:101B600004000020C043854202D0044800782D18AC
:101B700000F03CFB001BA842FAD331BD84000020DA
:101B8000F8B506001BD09F4C3078C00719D58027C8
:101B9000BF0260680C21014004290BD060680C2151
:101BA0000140082948D16068C021490201407808F5
:101BB000814241D12068074003D07068002800D1DD
:101BC000E9E1307880071FD5F827FF4360680C21D2
:101BD00001400CD060680C21014008295FD1606889
:101BE000C0214902014080200002814257D1206873
:101BF000800703D5F068012800D0CCE120680740B9
:101C00003069C000384320603078000778D502275B
:101C1000F0690028606A64D001210143616200F02C
:101C2000E5FA0500606A38406AD100F0DFFA401B2F
:101C30000228F7D90320F2BD72687908012A08D07A
:101C4000B248002A09D0052A07D120688A00024339
:101C5000226020680143216006E02168AC4A0A4006
:101C60002260216808402060706800280BD000F0D6
:101C7000BDFA050020683840A3D100F0B7FA401B38
:101C80006528F7D3D6E700F0B1FA050020683840A0
:101C900097D000F0ABFA401B6528F7D3CAE7F0688D
:101CA000002820680ED001210143216000F09EFA37
:101CB000050020688007A1D400F098FA401B022894
:101CC000F7D9B7E701218843206000F08FFA0500BB
:101CD0002068800798D500F089FA401B0228F7D9C0
:101CE000A8E701218843606200F080FA0500606A7D
:101CF000384005D000F07AFA401B0228F7D999E75E
:101D00003078400761D50020009080204005E169CF
:101D1000014008D1E1690143E161E16908400090B7
:101D20000098012000909E4F3868C0050FD4386895
:101D3000A10D0143396000F059FA05003868C0056B
:101D400005D400F053FA401B6528F7D372E7B0685A
:101D5000012809D0002801D1206A0AE00528206A5C
:101D600007D1042101432162206A0121014321623C
:101D700006E0012188432062206A04218843206212
:101D80000227B06800280CD000F030FA0500206A65
:101D9000384013D100F02AFA401B82498842F6D31A
:101DA00048E700F023FA0500206A384006D000F02A
:101DB0001DFA401B7B498842F6D33BE70098002878
:101DC00003D0E06978490140E1613078C00621D54F
:101DD0007069F825ED430422012851D1606B02435C
:101DE0006263606B01210143616300F0FFF907004A
:101DF000606B800708D400F0F9F9C01B0228F7D9FE
:101E000018E700BF00100240606B0540B069C000D9
:101E1000284360630C273078800614D5606838400A
:101E20000C2809D060683840082843D160687903DD
:101E30000140780381423DD1606BC00303D5306A15
:101E4000012800D0A7E0706A002800D1A5E06168F1
:101E50000F40082F00D189E08027BF049549022850
:101E6000206875D10140216000F0C0F905002068AC
:101E700038404FD000F0BAF9401B0228F7D9D9E614
:101E80000421C9438842606B02D101406163BBE712
:101E900002436263606B01218843606300F0A6F92E
:101EA0000500606B8007B5D500F0A0F9401B022843
:101EB000F7D9BFE6802040020090306A002813D096
:101EC000802040020090606B00990143616300F044
:101ED0008DF90500606B00990140B4D100F086F9DE
:101EE000401B0228F6D9A5E6606B094901406163F1
:101EF00000F07CF90500606B00990140A3D000F070
:101F000075F9401B0228F6D994E600BFFFFFFBFFDE
:101F1000FFFFFEFFE06A0F218843316B0143E1625E
:101F2000606879490140F06A0843B16A0143616021
:101F3000206879080143216000F058F90500206805
:101F400038402AD100F052F9401B0228F7D971E637
:101F50000140216000F04AF90500206838401CD09B
:101F600000F044F9401B0228F7D963E6012812D09B
:101F70006068E16AC02252020240B36A9A420AD102
:101F80000907090F326B914205D1F0218903014005
:101F9000F06A814201D00120F2BD0020F2BD0000B4
:101FA0000070004089130000FFFFFFEFF8B5040048
:101FB00065D0009155480068C107C90F009881425B
:101FC0000CD25248016801229143009A0A430260F0
:101FD0000068C107C90F0098814250D121684C4D5B
:101FE000022001420CD0490704D56968E022D200E2
:101FF0000A436A606968F0229143A2680A436A60F2
:102000000127216839402AD06168012902D1286856
:10201000800308E0022902D12868800103E0032937
:1020200003D1686BC00303D429E02A68104026D08E
:102030006868032290430143696000F0D7F8060006
:1020400068680C21014060688000814207D000F080
:10205000CDF8801B2F498842F2D30320F2BD2B48D4
:10206000009902683A4091420BD20168B943009A44
:102070000A430260006807400098874201D00120AF
:10208000F2BD2078400705D5686823490140E06823
:102090000843686000F010F820496A681206120FC1
:1020A000895CC8401E490860002000F07BF80020D1
:1020B000F2BD0000FFFFFFFEF0B51A490B681A4899
:1020C0001A4A0C241C40082C02D00C2C1AD0F0BD4B
:1020D0000F2500BF16A49E0C2E40A45D18A6896A89
:1020E0000D40715DC0256D022E001E4080277F02CD
:1020F000BE4203D02B40AB4200D11000FFF740FAA4
:102100006043F0BD1000F0BDFF7FC2FF0020024021
:102110000010024089130000FFF8FFFF742300083D
:10212000900000200410024000127A00006CDC02D3
:1021300002030405060708090A0B0C0D0E0F101008
:102140000102030405060708090A0B0C0D0E0F1007
:102150001206130A1A43130C1A4300BF094205D092
:10216000830705D00270401C491EF9D1704700005A
:102170001300103906D330B41400150010393CC0D8
:10218000FCD230BC490700D30CC000D504C0890084
:1021900002D30280801C002900D502707047FEE740
:1021A0007047FEE738B505000D4CFA208000217815
:1021B000FFF7E6F901000B480068FFF7E1F9FFF7C8
:1021C000AAF900280AD1042D08D2002229000020F3
:1021D000C043FFF78AF9A560002032BD012032BD5F
:1021E000840000209000002070477047014840683C
:1021F000704700BF840000207047FEE7094880F365
:10220000088804200168090E1F22914205D1064862
:10221000012101600548002101600548804705480B
:10222000004700007805002018100240000001401F
:102230007123000855230008FEE7FEE7704770474A
:1022400080B500F017F801BD80B50748FEF77EFCA9
:1022500001BD80B50548FFF7C1FA01BD80B504484E
:10226000FEF736F801BD0000300100209400002088
:1022700030000020024841680278891841607047A8
:102280008400002070B40123002413E00168001DC5
:10229000194202D04D466918491E0C60091D121FD3
:1022A000042AFAD20D00960701D50C80AD1C1A4005
:1022B00000D02C700268001D002AE7D170BC704766
:1022C00010B5074979441831064C7C44163404E0B3
:1022D000081D0A68891888470100A142F8D110BD7D
:1022E00008000000240000009DFFFFFFE000000048
:1022F00094000020000000008FE5FFFFA800000010
:10230000300000000000002000F00DF8002801D08F
:10231000FFF7D6FF00BF00BF002000BF00BFFEF7E1
:102320009BFC00F002F80120704780B500F002F835
:1023300001BDFEE70746384600F002F8FBE7FEE77E
:1023400080B500BF00BF024A11001820ABBEFBE7FA
:10235000260002000548014603B4684680F3098858
:1023600000BF00BF00BF00BFFFF7CEFFA5EDF5FE29
:10237000704700000000000000000000010203049C
:1023800006070809FEE7FEE7FEE7FEE7FEE7FEE7D1
:10239000FEE7FEE7FEE7FEE7FEE7FEE7FEE7FEE715
:1023A000FEE7FEE7FD000202000186000004FD00DA
:0C23B0000001F9000004FC0002127A0099
:040000050800235577
:00000001FF
